{
  "_format": "hh-sol-artifact-1",
  "contractName": "HederaTokenService",
  "sourceName": "contracts/HTS/HederaTokenService.sol",
  "abi": [
    {
      "anonymous": false,
      "inputs": [
        {
          "indexed": false,
          "internalType": "bool",
          "name": "",
          "type": "bool"
        },
        {
          "indexed": false,
          "internalType": "bytes",
          "name": "",
          "type": "bytes"
        }
      ],
      "name": "CallResponseEvent",
      "type": "event"
    },
    {
      "inputs": [
        {
          "internalType": "address",
          "name": "token",
          "type": "address"
        },
        {
          "internalType": "bytes",
          "name": "encodedFunctionSelector",
          "type": "bytes"
        }
      ],
      "name": "redirectForToken",
      "outputs": [
        {
          "internalType": "int256",
          "name": "responseCode",
          "type": "int256"
        },
        {
          "internalType": "bytes",
          "name": "response",
          "type": "bytes"
        }
      ],
      "stateMutability": "nonpayable",
      "type": "function"
    },
    {
      "inputs": [
        {
          "internalType": "address",
          "name": "token",
          "type": "address"
        },
        {
          "internalType": "address",
          "name": "from",
          "type": "address"
        },
        {
          "internalType": "address",
          "name": "to",
          "type": "address"
        },
        {
          "internalType": "uint256",
          "name": "amount",
          "type": "uint256"
        }
      ],
      "name": "transferFrom",
      "outputs": [
        {
          "internalType": "int64",
          "name": "responseCode",
          "type": "int64"
        }
      ],
      "stateMutability": "nonpayable",
      "type": "function"
    },
    {
      "inputs": [
        {
          "internalType": "address",
          "name": "token",
          "type": "address"
        },
        {
          "internalType": "address",
          "name": "from",
          "type": "address"
        },
        {
          "internalType": "address",
          "name": "to",
          "type": "address"
        },
        {
          "internalType": "uint256",
          "name": "serialNumber",
          "type": "uint256"
        }
      ],
      "name": "transferFromNFT",
      "outputs": [
        {
          "internalType": "int64",
          "name": "responseCode",
          "type": "int64"
        }
      ],
      "stateMutability": "nonpayable",
      "type": "function"
    }
  ],
  "bytecode": "0x608060405234801561001057600080fd5b506109ec806100206000396000f3fe608060405234801561001057600080fd5b50600436106100415760003560e01c806315dacbea14610046578063618dc65e146100765780639b23d3d9146100a7575b600080fd5b610060600480360381019061005b9190610517565b6100d7565b60405161006d919061059a565b60405180910390f35b610090600480360381019061008b91906106fb565b6101f5565b60405161009e9291906107ef565b60405180910390f35b6100c160048036038101906100bc9190610517565b610351565b6040516100ce919061059a565b60405180910390f35b600080600061016773ffffffffffffffffffffffffffffffffffffffff166315dacbea60e01b88888888604051602401610114949392919061083d565b604051602081830303815290604052907bffffffffffffffffffffffffffffffffffffffffffffffffffffffff19166020820180517bffffffffffffffffffffffffffffffffffffffffffffffffffffffff838183161783525050505060405161017e91906108be565b6000604051808303816000865af19150503d80600081146101bb576040519150601f19603f3d011682016040523d82523d6000602084013e6101c0565b606091505b5091509150816101d15760156101e6565b808060200190518101906101e5919061090e565b5b60030b92505050949350505050565b6000606060008061016773ffffffffffffffffffffffffffffffffffffffff1663618dc65e60e01b878760405160240161023092919061093b565b604051602081830303815290604052907bffffffffffffffffffffffffffffffffffffffffffffffffffffffff19166020820180517bffffffffffffffffffffffffffffffffffffffffffffffffffffffff838183161783525050505060405161029a91906108be565b6000604051808303816000865af19150503d80600081146102d7576040519150601f19603f3d011682016040523d82523d6000602084013e6102dc565b606091505b50915091507f4af4780e06fe8cb9df64b0794fa6f01399af979175bb988e35e0e57e594567bc8282604051610312929190610986565b60405180910390a1816103365760156040518060200160405280600081525061033a565b6016815b8160030b9150809450819550505050509250929050565b600080600061016773ffffffffffffffffffffffffffffffffffffffff16639b23d3d960e01b8888888860405160240161038e949392919061083d565b604051602081830303815290604052907bffffffffffffffffffffffffffffffffffffffffffffffffffffffff19166020820180517bffffffffffffffffffffffffffffffffffffffffffffffffffffffff83818316178352505050506040516103f891906108be565b6000604051808303816000865af19150503d8060008114610435576040519150601f19603f3d011682016040523d82523d6000602084013e61043a565b606091505b50915091508161044b576015610460565b8080602001905181019061045f919061090e565b5b60030b92505050949350505050565b6000604051905090565b600080fd5b600080fd5b600073ffffffffffffffffffffffffffffffffffffffff82169050919050565b60006104ae82610483565b9050919050565b6104be816104a3565b81146104c957600080fd5b50565b6000813590506104db816104b5565b92915050565b6000819050919050565b6104f4816104e1565b81146104ff57600080fd5b50565b600081359050610511816104eb565b92915050565b6000806000806080858703121561053157610530610479565b5b600061053f878288016104cc565b9450506020610550878288016104cc565b9350506040610561878288016104cc565b925050606061057287828801610502565b91505092959194509250565b60008160070b9050919050565b6105948161057e565b82525050565b60006020820190506105af600083018461058b565b92915050565b600080fd5b600080fd5b6000601f19601f8301169050919050565b7f4e487b7100000000000000000000000000000000000000000000000000000000600052604160045260246000fd5b610608826105bf565b810181811067ffffffffffffffff82111715610627576106266105d0565b5b80604052505050565b600061063a61046f565b905061064682826105ff565b919050565b600067ffffffffffffffff821115610666576106656105d0565b5b61066f826105bf565b9050602081019050919050565b82818337600083830152505050565b600061069e6106998461064b565b610630565b9050828152602081018484840111156106ba576106b96105ba565b5b6106c584828561067c565b509392505050565b600082601f8301126106e2576106e16105b5565b5b81356106f284826020860161068b565b91505092915050565b6000806040838503121561071257610711610479565b5b6000610720858286016104cc565b925050602083013567ffffffffffffffff8111156107415761074061047e565b5b61074d858286016106cd565b9150509250929050565b6000819050919050565b61076a81610757565b82525050565b600081519050919050565b600082825260208201905092915050565b60005b838110156107aa57808201518184015260208101905061078f565b60008484015250505050565b60006107c182610770565b6107cb818561077b565b93506107db81856020860161078c565b6107e4816105bf565b840191505092915050565b60006040820190506108046000830185610761565b818103602083015261081681846107b6565b90509392505050565b610828816104a3565b82525050565b610837816104e1565b82525050565b6000608082019050610852600083018761081f565b61085f602083018661081f565b61086c604083018561081f565b610879606083018461082e565b95945050505050565b600081905092915050565b600061089882610770565b6108a28185610882565b93506108b281856020860161078c565b80840191505092915050565b60006108ca828461088d565b915081905092915050565b60008160030b9050919050565b6108eb816108d5565b81146108f657600080fd5b50565b600081519050610908816108e2565b92915050565b60006020828403121561092457610923610479565b5b6000610932848285016108f9565b91505092915050565b6000604082019050610950600083018561081f565b818103602083015261096281846107b6565b90509392505050565b60008115159050919050565b6109808161096b565b82525050565b600060408201905061099b6000830185610977565b81810360208301526109ad81846107b6565b9050939250505056fea2646970667358221220427b7199206e2c7c4177e8e31b2b8880dd2e9ff7181e144474f8106491e7788264736f6c63430008180033",
  "linkReferences": {},
  "deployedLinkReferences": {}
}