{
  "_format": "hh-sol-artifact-1",
  "contractName": "Vault",
  "sourceName": "contracts/Vault.sol",
  "abi": [
    {
      "inputs": [],
      "stateMutability": "nonpayable",
      "type": "constructor"
    },
    {
      "inputs": [
        {
          "internalType": "address",
          "name": "owner",
          "type": "address"
        }
      ],
      "name": "OwnableInvalidOwner",
      "type": "error"
    },
    {
      "inputs": [
        {
          "internalType": "address",
          "name": "account",
          "type": "address"
        }
      ],
      "name": "OwnableUnauthorizedAccount",
      "type": "error"
    },
    {
      "anonymous": false,
      "inputs": [
        {
          "indexed": false,
          "internalType": "uint256",
          "name": "amount",
          "type": "uint256"
        }
      ],
      "name": "HBARDeposited",
      "type": "event"
    },
    {
      "anonymous": false,
      "inputs": [
        {
          "indexed": false,
          "internalType": "address",
          "name": "from",
          "type": "address"
        },
        {
          "indexed": false,
          "internalType": "uint256",
          "name": "amount",
          "type": "uint256"
        }
      ],
      "name": "HBARTransferredFrom",
      "type": "event"
    },
    {
      "anonymous": false,
      "inputs": [
        {
          "indexed": false,
          "internalType": "address",
          "name": "to",
          "type": "address"
        },
        {
          "indexed": false,
          "internalType": "uint256",
          "name": "amount",
          "type": "uint256"
        }
      ],
      "name": "HBARTransferredTo",
      "type": "event"
    },
    {
      "anonymous": false,
      "inputs": [
        {
          "indexed": false,
          "internalType": "uint256",
          "name": "amount",
          "type": "uint256"
        }
      ],
      "name": "HBARWithdrawn",
      "type": "event"
    },
    {
      "anonymous": false,
      "inputs": [
        {
          "indexed": true,
          "internalType": "address",
          "name": "previousOwner",
          "type": "address"
        },
        {
          "indexed": true,
          "internalType": "address",
          "name": "newOwner",
          "type": "address"
        }
      ],
      "name": "OwnershipTransferred",
      "type": "event"
    },
    {
      "anonymous": false,
      "inputs": [
        {
          "indexed": false,
          "internalType": "address",
          "name": "token1Address",
          "type": "address"
        },
        {
          "indexed": false,
          "internalType": "uint256",
          "name": "amount1",
          "type": "uint256"
        },
        {
          "indexed": false,
          "internalType": "address",
          "name": "token2Address",
          "type": "address"
        },
        {
          "indexed": false,
          "internalType": "uint256",
          "name": "amount2",
          "type": "uint256"
        },
        {
          "indexed": false,
          "internalType": "address",
          "name": "to",
          "type": "address"
        }
      ],
      "name": "Swapped",
      "type": "event"
    },
    {
      "anonymous": false,
      "inputs": [
        {
          "indexed": false,
          "internalType": "address",
          "name": "tokenAddress",
          "type": "address"
        },
        {
          "indexed": false,
          "internalType": "uint256",
          "name": "amount",
          "type": "uint256"
        }
      ],
      "name": "TokenDeposited",
      "type": "event"
    },
    {
      "anonymous": false,
      "inputs": [
        {
          "indexed": false,
          "internalType": "address",
          "name": "from",
          "type": "address"
        },
        {
          "indexed": false,
          "internalType": "address",
          "name": "tokenAddress",
          "type": "address"
        },
        {
          "indexed": false,
          "internalType": "uint256",
          "name": "amount",
          "type": "uint256"
        }
      ],
      "name": "TokenTransferredFrom",
      "type": "event"
    },
    {
      "anonymous": false,
      "inputs": [
        {
          "indexed": false,
          "internalType": "address",
          "name": "to",
          "type": "address"
        },
        {
          "indexed": false,
          "internalType": "address",
          "name": "tokenAddress",
          "type": "address"
        },
        {
          "indexed": false,
          "internalType": "uint256",
          "name": "amount",
          "type": "uint256"
        }
      ],
      "name": "TokenTransferredTo",
      "type": "event"
    },
    {
      "anonymous": false,
      "inputs": [
        {
          "indexed": false,
          "internalType": "address",
          "name": "tokenAddress",
          "type": "address"
        },
        {
          "indexed": false,
          "internalType": "uint256",
          "name": "amount",
          "type": "uint256"
        }
      ],
      "name": "TokenWithdrawn",
      "type": "event"
    },
    {
      "inputs": [],
      "name": "balance",
      "outputs": [
        {
          "internalType": "uint256",
          "name": "",
          "type": "uint256"
        }
      ],
      "stateMutability": "view",
      "type": "function"
    },
    {
      "inputs": [
        {
          "internalType": "address",
          "name": "",
          "type": "address"
        }
      ],
      "name": "balances",
      "outputs": [
        {
          "internalType": "uint256",
          "name": "",
          "type": "uint256"
        }
      ],
      "stateMutability": "view",
      "type": "function"
    },
    {
      "inputs": [],
      "name": "depositHBAR",
      "outputs": [],
      "stateMutability": "payable",
      "type": "function"
    },
    {
      "inputs": [
        {
          "internalType": "address",
          "name": "tokenAddress",
          "type": "address"
        },
        {
          "internalType": "uint256",
          "name": "amount",
          "type": "uint256"
        }
      ],
      "name": "depositToken",
      "outputs": [],
      "stateMutability": "nonpayable",
      "type": "function"
    },
    {
      "inputs": [],
      "name": "owner",
      "outputs": [
        {
          "internalType": "address",
          "name": "",
          "type": "address"
        }
      ],
      "stateMutability": "view",
      "type": "function"
    },
    {
      "inputs": [],
      "name": "renounceOwnership",
      "outputs": [],
      "stateMutability": "nonpayable",
      "type": "function"
    },
    {
      "inputs": [
        {
          "internalType": "address",
          "name": "token1Address",
          "type": "address"
        },
        {
          "internalType": "uint256",
          "name": "amount1",
          "type": "uint256"
        },
        {
          "internalType": "address",
          "name": "token2Address",
          "type": "address"
        },
        {
          "internalType": "uint256",
          "name": "amount2",
          "type": "uint256"
        },
        {
          "internalType": "address",
          "name": "to",
          "type": "address"
        }
      ],
      "name": "swap",
      "outputs": [],
      "stateMutability": "nonpayable",
      "type": "function"
    },
    {
      "inputs": [],
      "name": "transferHBARFromUser",
      "outputs": [],
      "stateMutability": "payable",
      "type": "function"
    },
    {
      "inputs": [
        {
          "internalType": "address",
          "name": "to",
          "type": "address"
        },
        {
          "internalType": "uint256",
          "name": "amount",
          "type": "uint256"
        }
      ],
      "name": "transferHBARToUser",
      "outputs": [],
      "stateMutability": "nonpayable",
      "type": "function"
    },
    {
      "inputs": [
        {
          "internalType": "address",
          "name": "newOwner",
          "type": "address"
        }
      ],
      "name": "transferOwnership",
      "outputs": [],
      "stateMutability": "nonpayable",
      "type": "function"
    },
    {
      "inputs": [
        {
          "internalType": "address",
          "name": "from",
          "type": "address"
        },
        {
          "internalType": "address",
          "name": "tokenAddress",
          "type": "address"
        },
        {
          "internalType": "uint256",
          "name": "amount",
          "type": "uint256"
        }
      ],
      "name": "transferTokenFromUser",
      "outputs": [],
      "stateMutability": "nonpayable",
      "type": "function"
    },
    {
      "inputs": [
        {
          "internalType": "address",
          "name": "to",
          "type": "address"
        },
        {
          "internalType": "address",
          "name": "tokenAddress",
          "type": "address"
        },
        {
          "internalType": "uint256",
          "name": "amount",
          "type": "uint256"
        }
      ],
      "name": "transferTokenToUser",
      "outputs": [],
      "stateMutability": "nonpayable",
      "type": "function"
    },
    {
      "inputs": [
        {
          "internalType": "uint256",
          "name": "amount",
          "type": "uint256"
        }
      ],
      "name": "withdrawHBAR",
      "outputs": [],
      "stateMutability": "nonpayable",
      "type": "function"
    },
    {
      "inputs": [
        {
          "internalType": "address",
          "name": "tokenAddress",
          "type": "address"
        },
        {
          "internalType": "uint256",
          "name": "amount",
          "type": "uint256"
        }
      ],
      "name": "withdrawToken",
      "outputs": [],
      "stateMutability": "nonpayable",
      "type": "function"
    }
  ],
  "bytecode": "0x60806040523480156200001157600080fd5b5033600073ffffffffffffffffffffffffffffffffffffffff168173ffffffffffffffffffffffffffffffffffffffff1603620000885760006040517f1e4fbdf70000000000000000000000000000000000000000000000000000000081526004016200007f9190620001a9565b60405180910390fd5b6200009981620000a060201b60201c565b50620001c6565b60008060009054906101000a900473ffffffffffffffffffffffffffffffffffffffff169050816000806101000a81548173ffffffffffffffffffffffffffffffffffffffff021916908373ffffffffffffffffffffffffffffffffffffffff1602179055508173ffffffffffffffffffffffffffffffffffffffff168173ffffffffffffffffffffffffffffffffffffffff167f8be0079c531659141344cd1fd0a4f28419497f9722a3daafe3b4186f6b6457e060405160405180910390a35050565b600073ffffffffffffffffffffffffffffffffffffffff82169050919050565b6000620001918262000164565b9050919050565b620001a38162000184565b82525050565b6000602082019050620001c0600083018462000198565b92915050565b61195080620001d66000396000f3fe6080604052600436106100dd5760003560e01c8063715018a61161007f5780639e281a98116100595780639e281a9814610242578063a9a0c7ff1461026b578063b69ef8a814610294578063f2fde38b146102bf576100dd565b8063715018a6146101f657806371b42fe31461020d5780638da5cb5b14610217576100dd565b8063357355d7116100bb578063357355d7146101715780636049ea901461019a5780636548aff0146101a4578063658e2ed3146101cd576100dd565b806327e235e3146100e25780632c6afd9a1461011f578063338b5dea14610148575b600080fd5b3480156100ee57600080fd5b5061010960048036038101906101049190611078565b6102e8565b60405161011691906110be565b60405180910390f35b34801561012b57600080fd5b5061014660048036038101906101419190611105565b610300565b005b34801561015457600080fd5b5061016f600480360381019061016a9190611158565b6104e3565b005b34801561017d57600080fd5b5061019860048036038101906101939190611105565b610686565b005b6101a26107e9565b005b3480156101b057600080fd5b506101cb60048036038101906101c69190611198565b61087e565b005b3480156101d957600080fd5b506101f460048036038101906101ef9190611158565b6108e2565b005b34801561020257600080fd5b5061020b6109d8565b005b6102156109ec565b005b34801561022357600080fd5b5061022c610a83565b6040516102399190611222565b60405180910390f35b34801561024e57600080fd5b5061026960048036038101906102649190611158565b610aac565b005b34801561027757600080fd5b50610292600480360381019061028d919061123d565b610cd6565b005b3480156102a057600080fd5b506102a9610e36565b6040516102b691906110be565b60405180910390f35b3480156102cb57600080fd5b506102e660048036038101906102e19190611078565b610e3c565b005b60016020528060005260406000206000915090505481565b610308610ec2565b80600160008473ffffffffffffffffffffffffffffffffffffffff1673ffffffffffffffffffffffffffffffffffffffff16815260200190815260200160002054101561038a576040517f08c379a0000000000000000000000000000000000000000000000000000000008152600401610381906112c7565b60405180910390fd5b60008290508073ffffffffffffffffffffffffffffffffffffffff1663a9059cbb85846040518363ffffffff1660e01b81526004016103ca9291906112e7565b6020604051808303816000875af11580156103e9573d6000803e3d6000fd5b505050506040513d601f19601f8201168201806040525081019061040d9190611348565b61044c576040517f08c379a0000000000000000000000000000000000000000000000000000000008152600401610443906113e7565b60405180910390fd5b81600160008573ffffffffffffffffffffffffffffffffffffffff1673ffffffffffffffffffffffffffffffffffffffff168152602001908152602001600020600082825461049b9190611436565b925050819055507faea63f7a1a8101db01ae4ab857884b68fb261a0cd45f323e1afbedddce0234688484846040516104d59392919061146a565b60405180910390a150505050565b6104eb610ec2565b6000811161052e576040517f08c379a0000000000000000000000000000000000000000000000000000000008152600401610525906114ed565b60405180910390fd5b60008290508073ffffffffffffffffffffffffffffffffffffffff166323b872dd3330856040518463ffffffff1660e01b81526004016105709392919061146a565b6020604051808303816000875af115801561058f573d6000803e3d6000fd5b505050506040513d601f19601f820116820180604052508101906105b39190611348565b6105f2576040517f08c379a00000000000000000000000000000000000000000000000000000000081526004016105e99061157f565b60405180910390fd5b81600160008573ffffffffffffffffffffffffffffffffffffffff1673ffffffffffffffffffffffffffffffffffffffff1681526020019081526020016000206000828254610641919061159f565b925050819055507fbc7c8a4d8049a3f99a02f2a20640c206a2e4d3f2fa54fd20da9f01fda3620cda83836040516106799291906112e7565b60405180910390a1505050565b61068e610ec2565b60008290508073ffffffffffffffffffffffffffffffffffffffff166323b872dd8530856040518463ffffffff1660e01b81526004016106d09392919061146a565b6020604051808303816000875af11580156106ef573d6000803e3d6000fd5b505050506040513d601f19601f820116820180604052508101906107139190611348565b610752576040517f08c379a0000000000000000000000000000000000000000000000000000000008152600401610749906113e7565b60405180910390fd5b81600160008573ffffffffffffffffffffffffffffffffffffffff1673ffffffffffffffffffffffffffffffffffffffff16815260200190815260200160002060008282546107a1919061159f565b925050819055507fb3ab719b6e4ab15d78d4e323d7da70232453e9ce1e1f033d190c7cc0f8babead8430846040516107db9392919061146a565b60405180910390a150505050565b6000341161082c576040517f08c379a0000000000000000000000000000000000000000000000000000000008152600401610823906114ed565b60405180910390fd5b346002600082825461083e919061159f565b925050819055507f0673b5371dc7ce1567c310087739f90efa3a8369484d54680057c9e2a1b1bc993460405161087491906110be565b60405180910390a1565b610886610ec2565b610891818686610686565b61089c818484610300565b7f6d77ba1f804ddcc6340460d1fa9604fe902b1b0258de45c452241153b6e66c2785858585856040516108d39594939291906115d3565b60405180910390a15050505050565b6108ea610ec2565b6000811180156108fc57506002548111155b61093b576040517f08c379a000000000000000000000000000000000000000000000000000000000815260040161093290611672565b60405180910390fd5b806002600082825461094d9190611436565b925050819055508173ffffffffffffffffffffffffffffffffffffffff166108fc829081150290604051600060405180830381858888f1935050505015801561099a573d6000803e3d6000fd5b507fd67c506c76bb46e02c601ac5b53485828f9d6b06ee52213d9180a09391f08d5782826040516109cc9291906112e7565b60405180910390a15050565b6109e0610ec2565b6109ea6000610f49565b565b60003411610a2f576040517f08c379a0000000000000000000000000000000000000000000000000000000008152600401610a26906116de565b60405180910390fd5b3460026000828254610a41919061159f565b925050819055507fe84dd0245694216026bbc0a6ca743fa562c610de14f03ce49784071839f393a93334604051610a799291906112e7565b60405180910390a1565b60008060009054906101000a900473ffffffffffffffffffffffffffffffffffffffff16905090565b610ab4610ec2565b60008111610af7576040517f08c379a0000000000000000000000000000000000000000000000000000000008152600401610aee9061174a565b60405180910390fd5b80600160008473ffffffffffffffffffffffffffffffffffffffff1673ffffffffffffffffffffffffffffffffffffffff168152602001908152602001600020541015610b79576040517f08c379a0000000000000000000000000000000000000000000000000000000008152600401610b70906112c7565b60405180910390fd5b60008290508073ffffffffffffffffffffffffffffffffffffffff1663a9059cbb610ba2610a83565b846040518363ffffffff1660e01b8152600401610bc09291906112e7565b6020604051808303816000875af1158015610bdf573d6000803e3d6000fd5b505050506040513d601f19601f82011682018060405250810190610c039190611348565b610c42576040517f08c379a0000000000000000000000000000000000000000000000000000000008152600401610c39906117dc565b60405180910390fd5b81600160008573ffffffffffffffffffffffffffffffffffffffff1673ffffffffffffffffffffffffffffffffffffffff1681526020019081526020016000206000828254610c919190611436565b925050819055507fa2bd9fcfcdba69f52bcd9a520846ad4bd685b187483f53efc42d035b2ddebff08383604051610cc99291906112e7565b60405180910390a1505050565b610cde610ec2565b600081118015610cf057506002548111155b610d2f576040517f08c379a0000000000000000000000000000000000000000000000000000000008152600401610d2690611848565b60405180910390fd5b6000610d39610a83565b73ffffffffffffffffffffffffffffffffffffffff1682604051610d5c90611899565b60006040518083038185875af1925050503d8060008114610d99576040519150601f19603f3d011682016040523d82523d6000602084013e610d9e565b606091505b5050905080610de2576040517f08c379a0000000000000000000000000000000000000000000000000000000008152600401610dd9906118fa565b60405180910390fd5b8160026000828254610df49190611436565b925050819055507f82b486b1348640fa3474e807dac2dbd831d2604ec108221325dba1ed6f6107f482604051610e2a91906110be565b60405180910390a15050565b60025481565b610e44610ec2565b600073ffffffffffffffffffffffffffffffffffffffff168173ffffffffffffffffffffffffffffffffffffffff1603610eb65760006040517f1e4fbdf7000000000000000000000000000000000000000000000000000000008152600401610ead9190611222565b60405180910390fd5b610ebf81610f49565b50565b610eca61100d565b73ffffffffffffffffffffffffffffffffffffffff16610ee8610a83565b73ffffffffffffffffffffffffffffffffffffffff1614610f4757610f0b61100d565b6040517f118cdaa7000000000000000000000000000000000000000000000000000000008152600401610f3e9190611222565b60405180910390fd5b565b60008060009054906101000a900473ffffffffffffffffffffffffffffffffffffffff169050816000806101000a81548173ffffffffffffffffffffffffffffffffffffffff021916908373ffffffffffffffffffffffffffffffffffffffff1602179055508173ffffffffffffffffffffffffffffffffffffffff168173ffffffffffffffffffffffffffffffffffffffff167f8be0079c531659141344cd1fd0a4f28419497f9722a3daafe3b4186f6b6457e060405160405180910390a35050565b600033905090565b600080fd5b600073ffffffffffffffffffffffffffffffffffffffff82169050919050565b60006110458261101a565b9050919050565b6110558161103a565b811461106057600080fd5b50565b6000813590506110728161104c565b92915050565b60006020828403121561108e5761108d611015565b5b600061109c84828501611063565b91505092915050565b6000819050919050565b6110b8816110a5565b82525050565b60006020820190506110d360008301846110af565b92915050565b6110e2816110a5565b81146110ed57600080fd5b50565b6000813590506110ff816110d9565b92915050565b60008060006060848603121561111e5761111d611015565b5b600061112c86828701611063565b935050602061113d86828701611063565b925050604061114e868287016110f0565b9150509250925092565b6000806040838503121561116f5761116e611015565b5b600061117d85828601611063565b925050602061118e858286016110f0565b9150509250929050565b600080600080600060a086880312156111b4576111b3611015565b5b60006111c288828901611063565b95505060206111d3888289016110f0565b94505060406111e488828901611063565b93505060606111f5888289016110f0565b925050608061120688828901611063565b9150509295509295909350565b61121c8161103a565b82525050565b60006020820190506112376000830184611213565b92915050565b60006020828403121561125357611252611015565b5b6000611261848285016110f0565b91505092915050565b600082825260208201905092915050565b7f496e73756666696369656e742062616c616e6365000000000000000000000000600082015250565b60006112b160148361126a565b91506112bc8261127b565b602082019050919050565b600060208201905081810360008301526112e0816112a4565b9050919050565b60006040820190506112fc6000830185611213565b61130960208301846110af565b9392505050565b60008115159050919050565b61132581611310565b811461133057600080fd5b50565b6000815190506113428161131c565b92915050565b60006020828403121561135e5761135d611015565b5b600061136c84828501611333565b91505092915050565b7f4661696c656420746f207472616e7366657220746f6b656e7320746f2075736560008201527f7200000000000000000000000000000000000000000000000000000000000000602082015250565b60006113d160218361126a565b91506113dc82611375565b604082019050919050565b60006020820190508181036000830152611400816113c4565b9050919050565b7f4e487b7100000000000000000000000000000000000000000000000000000000600052601160045260246000fd5b6000611441826110a5565b915061144c836110a5565b925082820390508181111561146457611463611407565b5b92915050565b600060608201905061147f6000830186611213565b61148c6020830185611213565b61149960408301846110af565b949350505050565b7f4465706f73697420616d6f756e7420736d616c6c6572207468616e2030000000600082015250565b60006114d7601d8361126a565b91506114e2826114a1565b602082019050919050565b60006020820190508181036000830152611506816114ca565b9050919050565b7f4661696c656420746f207472616e7366657220746f6b656e732066726f6d207360008201527f656e646572000000000000000000000000000000000000000000000000000000602082015250565b600061156960258361126a565b91506115748261150d565b604082019050919050565b600060208201905081810360008301526115988161155c565b9050919050565b60006115aa826110a5565b91506115b5836110a5565b92508282019050808211156115cd576115cc611407565b5b92915050565b600060a0820190506115e86000830188611213565b6115f560208301876110af565b6116026040830186611213565b61160f60608301856110af565b61161c6080830184611213565b9695505050505050565b7f496e76616c6964207472616e7366657220616d6f756e74000000000000000000600082015250565b600061165c60178361126a565b915061166782611626565b602082019050919050565b6000602082019050818103600083015261168b8161164f565b9050919050565b7f5472616e7366657220616d6f756e7420736d616c6c6572207468616e20300000600082015250565b60006116c8601e8361126a565b91506116d382611692565b602082019050919050565b600060208201905081810360008301526116f7816116bb565b9050919050565b7f576974686472617720616d6f756e7420736d616c6c6572207468616e20300000600082015250565b6000611734601e8361126a565b915061173f826116fe565b602082019050919050565b6000602082019050818103600083015261176381611727565b9050919050565b7f4661696c656420746f207472616e7366657220746f6b656e7320746f206f776e60008201527f6572000000000000000000000000000000000000000000000000000000000000602082015250565b60006117c660228361126a565b91506117d18261176a565b604082019050919050565b600060208201905081810360008301526117f5816117b9565b9050919050565b7f496e76616c6964207769746864726177616c20616d6f756e7400000000000000600082015250565b600061183260198361126a565b915061183d826117fc565b602082019050919050565b6000602082019050818103600083015261186181611825565b9050919050565b600081905092915050565b50565b6000611883600083611868565b915061188e82611873565b600082019050919050565b60006118a482611876565b9150819050919050565b7f48424152207472616e73666572206661696c6564000000000000000000000000600082015250565b60006118e460148361126a565b91506118ef826118ae565b602082019050919050565b60006020820190508181036000830152611913816118d7565b905091905056fea26469706673582212200a87ba2f145a13d022c6d1776cccbf647eb261d86eebac94494bf624f7448c7f64736f6c63430008180033",
  "linkReferences": {},
  "deployedLinkReferences": {}
}